{"abi":[{"type":"constructor","inputs":[],"stateMutability":"nonpayable"},{"type":"fallback","stateMutability":"payable"},{"type":"receive","stateMutability":"payable"},{"type":"function","name":"GRACE_PERIOD","inputs":[],"outputs":[{"name":"","type":"uint256","internalType":"uint256"}],"stateMutability":"view"},{"type":"function","name":"UPGRADE_INTERFACE_VERSION","inputs":[],"outputs":[{"name":"","type":"string","internalType":"string"}],"stateMutability":"view"},{"type":"function","name":"accumulatedFees","inputs":[],"outputs":[{"name":"","type":"uint256","internalType":"uint256"}],"stateMutability":"view"},{"type":"function","name":"addMatchManager","inputs":[{"name":"manager","type":"address","internalType":"address"}],"outputs":[],"stateMutability":"nonpayable"},{"type":"function","name":"batchCancelMatches","inputs":[{"name":"matchIds","type":"uint256[]","internalType":"uint256[]"},{"name":"reason","type":"string","internalType":"string"}],"outputs":[],"stateMutability":"nonpayable"},{"type":"function","name":"batchClaimRefunds","inputs":[{"name":"matchIds","type":"uint256[]","internalType":"uint256[]"}],"outputs":[{"name":"totalRefund","type":"uint256","internalType":"uint256"}],"stateMutability":"nonpayable"},{"type":"function","name":"batchClaimWinnings","inputs":[{"name":"matchIds","type":"uint256[]","internalType":"uint256[]"}],"outputs":[{"name":"totalPayout","type":"uint256","internalType":"uint256"}],"stateMutability":"nonpayable"},{"type":"function","name":"batchResolveMatches","inputs":[{"name":"matchIds","type":"uint256[]","internalType":"uint256[]"},{"name":"results","type":"uint8[]","internalType":"enum MatchDayBetV2.Outcome[]"}],"outputs":[],"stateMutability":"nonpayable"},{"type":"function","name":"calculatePotentialWinnings","inputs":[{"name":"matchId","type":"uint256","internalType":"uint256"},{"name":"outcome","type":"uint8","internalType":"enum MatchDayBetV2.Outcome"},{"name":"amount","type":"uint256","internalType":"uint256"}],"outputs":[{"name":"potentialPayout","type":"uint256","internalType":"uint256"}],"stateMutability":"view"},{"type":"function","name":"cancelMatch","inputs":[{"name":"matchId","type":"uint256","internalType":"uint256"},{"name":"reason","type":"string","internalType":"string"}],"outputs":[],"stateMutability":"nonpayable"},{"type":"function","name":"claimRefund","inputs":[{"name":"matchId","type":"uint256","internalType":"uint256"}],"outputs":[],"stateMutability":"nonpayable"},{"type":"function","name":"claimWinnings","inputs":[{"name":"matchId","type":"uint256","internalType":"uint256"}],"outputs":[],"stateMutability":"nonpayable"},{"type":"function","name":"closeBetting","inputs":[{"name":"matchId","type":"uint256","internalType":"uint256"}],"outputs":[],"stateMutability":"nonpayable"},{"type":"function","name":"createMatch","inputs":[{"name":"homeTeam","type":"string","internalType":"string"},{"name":"awayTeam","type":"string","internalType":"string"},{"name":"competition","type":"string","internalType":"string"},{"name":"kickoffTime","type":"uint256","internalType":"uint256"}],"outputs":[{"name":"matchId","type":"uint256","internalType":"uint256"}],"stateMutability":"nonpayable"},{"type":"function","name":"emergencyPause","inputs":[],"outputs":[],"stateMutability":"nonpayable"},{"type":"function","name":"getBatchClaimableAmounts","inputs":[{"name":"user","type":"address","internalType":"address"},{"name":"matchIds","type":"uint256[]","internalType":"uint256[]"}],"outputs":[{"name":"amounts","type":"uint256[]","internalType":"uint256[]"},{"name":"statuses","type":"uint8[]","internalType":"uint8[]"}],"stateMutability":"view"},{"type":"function","name":"getBetCounts","inputs":[{"name":"matchId","type":"uint256","internalType":"uint256"}],"outputs":[{"name":"homeBets","type":"uint256","internalType":"uint256"},{"name":"drawBets","type":"uint256","internalType":"uint256"},{"name":"awayBets","type":"uint256","internalType":"uint256"}],"stateMutability":"view"},{"type":"function","name":"getClaimStatus","inputs":[{"name":"matchId","type":"uint256","internalType":"uint256"},{"name":"user","type":"address","internalType":"address"}],"outputs":[{"name":"status","type":"tuple","internalType":"struct MatchDayBetV2.ClaimStatus","components":[{"name":"canClaim","type":"bool","internalType":"bool"},{"name":"claimType","type":"uint8","internalType":"uint8"},{"name":"amount","type":"uint256","internalType":"uint256"}]}],"stateMutability":"view"},{"type":"function","name":"getClaimableAmount","inputs":[{"name":"matchId","type":"uint256","internalType":"uint256"},{"name":"user","type":"address","internalType":"address"}],"outputs":[{"name":"payoutAmount","type":"uint256","internalType":"uint256"},{"name":"alreadyClaimed","type":"bool","internalType":"bool"}],"stateMutability":"view"},{"type":"function","name":"getMatch","inputs":[{"name":"matchId","type":"uint256","internalType":"uint256"}],"outputs":[{"name":"","type":"tuple","internalType":"struct MatchDayBetV2.Match","components":[{"name":"matchId","type":"uint256","internalType":"uint256"},{"name":"kickoffTime","type":"uint256","internalType":"uint256"},{"name":"totalPool","type":"uint256","internalType":"uint256"},{"name":"homePool","type":"uint256","internalType":"uint256"},{"name":"drawPool","type":"uint256","internalType":"uint256"},{"name":"awayPool","type":"uint256","internalType":"uint256"},{"name":"homeBetCount","type":"uint256","internalType":"uint256"},{"name":"drawBetCount","type":"uint256","internalType":"uint256"},{"name":"awayBetCount","type":"uint256","internalType":"uint256"},{"name":"platformFeeAmount","type":"uint256","internalType":"uint256"},{"name":"result","type":"uint8","internalType":"enum MatchDayBetV2.Outcome"},{"name":"status","type":"uint8","internalType":"enum MatchDayBetV2.MatchStatus"},{"name":"homeTeam","type":"string","internalType":"string"},{"name":"awayTeam","type":"string","internalType":"string"},{"name":"competition","type":"string","internalType":"string"}]}],"stateMutability":"view"},{"type":"function","name":"getMatchFinancials","inputs":[{"name":"matchId","type":"uint256","internalType":"uint256"}],"outputs":[{"name":"totalPool","type":"uint256","internalType":"uint256"},{"name":"platformFee","type":"uint256","internalType":"uint256"},{"name":"totalClaimable","type":"uint256","internalType":"uint256"},{"name":"totalClaimed","type":"uint256","internalType":"uint256"},{"name":"unclaimedAmount","type":"uint256","internalType":"uint256"}],"stateMutability":"view"},{"type":"function","name":"getMatches","inputs":[{"name":"matchIds","type":"uint256[]","internalType":"uint256[]"}],"outputs":[{"name":"matchData","type":"tuple[]","internalType":"struct MatchDayBetV2.Match[]","components":[{"name":"matchId","type":"uint256","internalType":"uint256"},{"name":"kickoffTime","type":"uint256","internalType":"uint256"},{"name":"totalPool","type":"uint256","internalType":"uint256"},{"name":"homePool","type":"uint256","internalType":"uint256"},{"name":"drawPool","type":"uint256","internalType":"uint256"},{"name":"awayPool","type":"uint256","internalType":"uint256"},{"name":"homeBetCount","type":"uint256","internalType":"uint256"},{"name":"drawBetCount","type":"uint256","internalType":"uint256"},{"name":"awayBetCount","type":"uint256","internalType":"uint256"},{"name":"platformFeeAmount","type":"uint256","internalType":"uint256"},{"name":"result","type":"uint8","internalType":"enum MatchDayBetV2.Outcome"},{"name":"status","type":"uint8","internalType":"enum MatchDayBetV2.MatchStatus"},{"name":"homeTeam","type":"string","internalType":"string"},{"name":"awayTeam","type":"string","internalType":"string"},{"name":"competition","type":"string","internalType":"string"}]}],"stateMutability":"view"},{"type":"function","name":"getOdds","inputs":[{"name":"matchId","type":"uint256","internalType":"uint256"}],"outputs":[{"name":"homeOdds","type":"uint256","internalType":"uint256"},{"name":"drawOdds","type":"uint256","internalType":"uint256"},{"name":"awayOdds","type":"uint256","internalType":"uint256"}],"stateMutability":"view"},{"type":"function","name":"getPools","inputs":[{"name":"matchId","type":"uint256","internalType":"uint256"}],"outputs":[{"name":"total","type":"uint256","internalType":"uint256"},{"name":"home","type":"uint256","internalType":"uint256"},{"name":"draw","type":"uint256","internalType":"uint256"},{"name":"away","type":"uint256","internalType":"uint256"}],"stateMutability":"view"},{"type":"function","name":"getUnclaimedWinnings","inputs":[{"name":"user","type":"address","internalType":"address"},{"name":"matchIds","type":"uint256[]","internalType":"uint256[]"}],"outputs":[{"name":"claimableMatches","type":"uint256[]","internalType":"uint256[]"},{"name":"payouts","type":"uint256[]","internalType":"uint256[]"}],"stateMutability":"view"},{"type":"function","name":"getUserBet","inputs":[{"name":"matchId","type":"uint256","internalType":"uint256"},{"name":"user","type":"address","internalType":"address"}],"outputs":[{"name":"","type":"tuple","internalType":"struct MatchDayBetV2.Bet","components":[{"name":"bettor","type":"address","internalType":"address"},{"name":"amount","type":"uint256","internalType":"uint256"},{"name":"prediction","type":"uint8","internalType":"enum MatchDayBetV2.Outcome"},{"name":"claimed","type":"bool","internalType":"bool"}]}],"stateMutability":"view"},{"type":"function","name":"hasBet","inputs":[{"name":"","type":"uint256","internalType":"uint256"},{"name":"","type":"address","internalType":"address"}],"outputs":[{"name":"","type":"bool","internalType":"bool"}],"stateMutability":"view"},{"type":"function","name":"hasUserBet","inputs":[{"name":"matchId","type":"uint256","internalType":"uint256"},{"name":"user","type":"address","internalType":"address"}],"outputs":[{"name":"","type":"bool","internalType":"bool"}],"stateMutability":"view"},{"type":"function","name":"initialize","inputs":[{"name":"_owner","type":"address","internalType":"address"}],"outputs":[],"stateMutability":"nonpayable"},{"type":"function","name":"initializeV2","inputs":[],"outputs":[],"stateMutability":"nonpayable"},{"type":"function","name":"isMatchManager","inputs":[{"name":"manager","type":"address","internalType":"address"}],"outputs":[{"name":"","type":"bool","internalType":"bool"}],"stateMutability":"view"},{"type":"function","name":"lockUpgrades","inputs":[],"outputs":[],"stateMutability":"nonpayable"},{"type":"function","name":"matchManagers","inputs":[{"name":"","type":"address","internalType":"address"}],"outputs":[{"name":"","type":"bool","internalType":"bool"}],"stateMutability":"view"},{"type":"function","name":"matchPaused","inputs":[{"name":"","type":"uint256","internalType":"uint256"}],"outputs":[{"name":"","type":"bool","internalType":"bool"}],"stateMutability":"view"},{"type":"function","name":"matchTotalClaimed","inputs":[{"name":"","type":"uint256","internalType":"uint256"}],"outputs":[{"name":"","type":"uint256","internalType":"uint256"}],"stateMutability":"view"},{"type":"function","name":"matches","inputs":[{"name":"","type":"uint256","internalType":"uint256"}],"outputs":[{"name":"matchId","type":"uint256","internalType":"uint256"},{"name":"kickoffTime","type":"uint256","internalType":"uint256"},{"name":"totalPool","type":"uint256","internalType":"uint256"},{"name":"homePool","type":"uint256","internalType":"uint256"},{"name":"drawPool","type":"uint256","internalType":"uint256"},{"name":"awayPool","type":"uint256","internalType":"uint256"},{"name":"homeBetCount","type":"uint256","internalType":"uint256"},{"name":"drawBetCount","type":"uint256","internalType":"uint256"},{"name":"awayBetCount","type":"uint256","internalType":"uint256"},{"name":"platformFeeAmount","type":"uint256","internalType":"uint256"},{"name":"result","type":"uint8","internalType":"enum MatchDayBetV2.Outcome"},{"name":"status","type":"uint8","internalType":"enum MatchDayBetV2.MatchStatus"},{"name":"homeTeam","type":"string","internalType":"string"},{"name":"awayTeam","type":"string","internalType":"string"},{"name":"competition","type":"string","internalType":"string"}],"stateMutability":"view"},{"type":"function","name":"maxStake","inputs":[],"outputs":[{"name":"","type":"uint256","internalType":"uint256"}],"stateMutability":"view"},{"type":"function","name":"minStake","inputs":[],"outputs":[{"name":"","type":"uint256","internalType":"uint256"}],"stateMutability":"view"},{"type":"function","name":"nextMatchId","inputs":[],"outputs":[{"name":"","type":"uint256","internalType":"uint256"}],"stateMutability":"view"},{"type":"function","name":"owner","inputs":[],"outputs":[{"name":"","type":"address","internalType":"address"}],"stateMutability":"view"},{"type":"function","name":"pauseMatch","inputs":[{"name":"matchId","type":"uint256","internalType":"uint256"}],"outputs":[],"stateMutability":"nonpayable"},{"type":"function","name":"paused","inputs":[],"outputs":[{"name":"","type":"bool","internalType":"bool"}],"stateMutability":"view"},{"type":"function","name":"placeBet","inputs":[{"name":"matchId","type":"uint256","internalType":"uint256"},{"name":"prediction","type":"uint8","internalType":"enum MatchDayBetV2.Outcome"}],"outputs":[],"stateMutability":"payable"},{"type":"function","name":"platformFeeBps","inputs":[],"outputs":[{"name":"","type":"uint256","internalType":"uint256"}],"stateMutability":"view"},{"type":"function","name":"proxiableUUID","inputs":[],"outputs":[{"name":"","type":"bytes32","internalType":"bytes32"}],"stateMutability":"view"},{"type":"function","name":"removeMatchManager","inputs":[{"name":"manager","type":"address","internalType":"address"}],"outputs":[],"stateMutability":"nonpayable"},{"type":"function","name":"resolveMatch","inputs":[{"name":"matchId","type":"uint256","internalType":"uint256"},{"name":"result","type":"uint8","internalType":"enum MatchDayBetV2.Outcome"}],"outputs":[],"stateMutability":"nonpayable"},{"type":"function","name":"setPlatformFee","inputs":[{"name":"newFeeBps","type":"uint256","internalType":"uint256"}],"outputs":[],"stateMutability":"nonpayable"},{"type":"function","name":"setStakeLimits","inputs":[{"name":"newMin","type":"uint256","internalType":"uint256"},{"name":"newMax","type":"uint256","internalType":"uint256"}],"outputs":[],"stateMutability":"nonpayable"},{"type":"function","name":"transferOwnership","inputs":[{"name":"newOwner","type":"address","internalType":"address"}],"outputs":[],"stateMutability":"nonpayable"},{"type":"function","name":"unpause","inputs":[],"outputs":[],"stateMutability":"nonpayable"},{"type":"function","name":"unpauseMatch","inputs":[{"name":"matchId","type":"uint256","internalType":"uint256"}],"outputs":[],"stateMutability":"nonpayable"},{"type":"function","name":"upgradeToAndCall","inputs":[{"name":"newImplementation","type":"address","internalType":"address"},{"name":"data","type":"bytes","internalType":"bytes"}],"outputs":[],"stateMutability":"payable"},{"type":"function","name":"upgradesLocked","inputs":[],"outputs":[{"name":"","type":"bool","internalType":"bool"}],"stateMutability":"view"},{"type":"function","name":"userBets","inputs":[{"name":"","type":"uint256","internalType":"uint256"},{"name":"","type":"address","internalType":"address"}],"outputs":[{"name":"bettor","type":"address","internalType":"address"},{"name":"amount","type":"uint256","internalType":"uint256"},{"name":"prediction","type":"uint8","internalType":"enum MatchDayBetV2.Outcome"},{"name":"claimed","type":"bool","internalType":"bool"}],"stateMutability":"view"},{"type":"function","name":"userTotalClaimed","inputs":[{"name":"","type":"address","internalType":"address"}],"outputs":[{"name":"","type":"uint256","internalType":"uint256"}],"stateMutability":"view"},{"type":"function","name":"version","inputs":[],"outputs":[{"name":"","type":"string","internalType":"string"}],"stateMutability":"pure"},{"type":"function","name":"withdrawFees","inputs":[{"name":"to","type":"address","internalType":"address"}],"outputs":[],"stateMutability":"nonpayable"},{"type":"event","name":"BatchMatchesCancelled","inputs":[{"name":"matchIds","type":"uint256[]","indexed":false,"internalType":"uint256[]"},{"name":"reason","type":"string","indexed":false,"internalType":"string"}],"anonymous":false},{"type":"event","name":"BatchMatchesResolved","inputs":[{"name":"matchIds","type":"uint256[]","indexed":false,"internalType":"uint256[]"},{"name":"results","type":"uint8[]","indexed":false,"internalType":"enum MatchDayBetV2.Outcome[]"}],"anonymous":false},{"type":"event","name":"BatchRefundsClaimed","inputs":[{"name":"user","type":"address","indexed":true,"internalType":"address"},{"name":"matchIds","type":"uint256[]","indexed":false,"internalType":"uint256[]"},{"name":"totalRefund","type":"uint256","indexed":false,"internalType":"uint256"}],"anonymous":false},{"type":"event","name":"BatchWinningsClaimed","inputs":[{"name":"user","type":"address","indexed":true,"internalType":"address"},{"name":"matchIds","type":"uint256[]","indexed":false,"internalType":"uint256[]"},{"name":"totalPayout","type":"uint256","indexed":false,"internalType":"uint256"}],"anonymous":false},{"type":"event","name":"BetPlaced","inputs":[{"name":"matchId","type":"uint256","indexed":true,"internalType":"uint256"},{"name":"bettor","type":"address","indexed":true,"internalType":"address"},{"name":"prediction","type":"uint8","indexed":false,"internalType":"enum MatchDayBetV2.Outcome"},{"name":"amount","type":"uint256","indexed":false,"internalType":"uint256"},{"name":"newPoolTotal","type":"uint256","indexed":false,"internalType":"uint256"}],"anonymous":false},{"type":"event","name":"BettingClosed","inputs":[{"name":"matchId","type":"uint256","indexed":true,"internalType":"uint256"}],"anonymous":false},{"type":"event","name":"EmergencyPausedByManager","inputs":[{"name":"manager","type":"address","indexed":true,"internalType":"address"}],"anonymous":false},{"type":"event","name":"FeesWithdrawn","inputs":[{"name":"to","type":"address","indexed":true,"internalType":"address"},{"name":"amount","type":"uint256","indexed":false,"internalType":"uint256"}],"anonymous":false},{"type":"event","name":"Initialized","inputs":[{"name":"version","type":"uint64","indexed":false,"internalType":"uint64"}],"anonymous":false},{"type":"event","name":"MatchCancelled","inputs":[{"name":"matchId","type":"uint256","indexed":true,"internalType":"uint256"},{"name":"reason","type":"string","indexed":false,"internalType":"string"}],"anonymous":false},{"type":"event","name":"MatchCreated","inputs":[{"name":"matchId","type":"uint256","indexed":true,"internalType":"uint256"},{"name":"homeTeam","type":"string","indexed":false,"internalType":"string"},{"name":"awayTeam","type":"string","indexed":false,"internalType":"string"},{"name":"competition","type":"string","indexed":false,"internalType":"string"},{"name":"kickoffTime","type":"uint256","indexed":false,"internalType":"uint256"}],"anonymous":false},{"type":"event","name":"MatchManagerAdded","inputs":[{"name":"manager","type":"address","indexed":true,"internalType":"address"}],"anonymous":false},{"type":"event","name":"MatchManagerRemoved","inputs":[{"name":"manager","type":"address","indexed":true,"internalType":"address"}],"anonymous":false},{"type":"event","name":"MatchPaused","inputs":[{"name":"matchId","type":"uint256","indexed":true,"internalType":"uint256"}],"anonymous":false},{"type":"event","name":"MatchResolved","inputs":[{"name":"matchId","type":"uint256","indexed":true,"internalType":"uint256"},{"name":"result","type":"uint8","indexed":false,"internalType":"enum MatchDayBetV2.Outcome"},{"name":"totalPool","type":"uint256","indexed":false,"internalType":"uint256"},{"name":"winnerPool","type":"uint256","indexed":false,"internalType":"uint256"},{"name":"platformFee","type":"uint256","indexed":false,"internalType":"uint256"}],"anonymous":false},{"type":"event","name":"MatchUnpaused","inputs":[{"name":"matchId","type":"uint256","indexed":true,"internalType":"uint256"}],"anonymous":false},{"type":"event","name":"OwnershipTransferred","inputs":[{"name":"previousOwner","type":"address","indexed":true,"internalType":"address"},{"name":"newOwner","type":"address","indexed":true,"internalType":"address"}],"anonymous":false},{"type":"event","name":"Paused","inputs":[{"name":"account","type":"address","indexed":false,"internalType":"address"}],"anonymous":false},{"type":"event","name":"PlatformFeeUpdated","inputs":[{"name":"newFeeBps","type":"uint256","indexed":false,"internalType":"uint256"}],"anonymous":false},{"type":"event","name":"RefundClaimed","inputs":[{"name":"matchId","type":"uint256","indexed":true,"internalType":"uint256"},{"name":"bettor","type":"address","indexed":true,"internalType":"address"},{"name":"amount","type":"uint256","indexed":false,"internalType":"uint256"}],"anonymous":false},{"type":"event","name":"StakeLimitsUpdated","inputs":[{"name":"newMin","type":"uint256","indexed":false,"internalType":"uint256"},{"name":"newMax","type":"uint256","indexed":false,"internalType":"uint256"}],"anonymous":false},{"type":"event","name":"Unpaused","inputs":[{"name":"account","type":"address","indexed":false,"internalType":"address"}],"anonymous":false},{"type":"event","name":"Upgraded","inputs":[{"name":"implementation","type":"address","indexed":true,"internalType":"address"}],"anonymous":false},{"type":"event","name":"UpgradesLocked","inputs":[],"anonymous":false},{"type":"event","name":"WinningsClaimed","inputs":[{"name":"matchId","type":"uint256","indexed":true,"internalType":"uint256"},{"name":"bettor","type":"address","indexed":true,"internalType":"address"},{"name":"amount","type":"uint256","indexed":false,"internalType":"uint256"},{"name":"profit","type":"uint256","indexed":false,"internalType":"uint256"}],"anonymous":false},{"type":"error","name":"AboveMaxStake","inputs":[]},{"type":"error","name":"AddressEmptyCode","inputs":[{"name":"target","type":"address","internalType":"address"}]},{"type":"error","name":"AlreadyBet","inputs":[]},{"type":"error","name":"AlreadyClaimed","inputs":[]},{"type":"error","name":"ArrayLengthMismatch","inputs":[]},{"type":"error","name":"BatchTooLarge","inputs":[]},{"type":"error","name":"BelowMinStake","inputs":[]},{"type":"error","name":"BettingIsClosed","inputs":[]},{"type":"error","name":"ERC1967InvalidImplementation","inputs":[{"name":"implementation","type":"address","internalType":"address"}]},{"type":"error","name":"ERC1967NonPayable","inputs":[]},{"type":"error","name":"EmptyArray","inputs":[]},{"type":"error","name":"EnforcedPause","inputs":[]},{"type":"error","name":"ExpectedPause","inputs":[]},{"type":"error","name":"FailedCall","inputs":[]},{"type":"error","name":"InvalidFeeBps","inputs":[]},{"type":"error","name":"InvalidInitialization","inputs":[]},{"type":"error","name":"InvalidOutcome","inputs":[]},{"type":"error","name":"InvalidStakeLimits","inputs":[]},{"type":"error","name":"KickoffNotReached","inputs":[]},{"type":"error","name":"KickoffTimePassed","inputs":[]},{"type":"error","name":"MatchAlreadyCancelled","inputs":[]},{"type":"error","name":"MatchAlreadyResolved","inputs":[]},{"type":"error","name":"MatchIsPaused","inputs":[]},{"type":"error","name":"MatchNotCancelled","inputs":[]},{"type":"error","name":"MatchNotFound","inputs":[]},{"type":"error","name":"MatchNotOpen","inputs":[]},{"type":"error","name":"MatchNotResolved","inputs":[]},{"type":"error","name":"NoBetFound","inputs":[]},{"type":"error","name":"NoFeesToWithdraw","inputs":[]},{"type":"error","name":"NotAWinner","inputs":[]},{"type":"error","name":"NotInitializing","inputs":[]},{"type":"error","name":"NotMatchManager","inputs":[]},{"type":"error","name":"NotOwner","inputs":[]},{"type":"error","name":"NothingToClaim","inputs":[]},{"type":"error","name":"ReentrancyGuardReentrantCall","inputs":[]},{"type":"error","name":"StringTooLong","inputs":[]},{"type":"error","name":"TransferFailed","inputs":[]},{"type":"error","name":"UUPSUnauthorizedCallContext","inputs":[]},{"type":"error","name":"UUPSUnsupportedProxiableUUID","inputs":[{"name":"slot","type":"bytes32","internalType":"bytes32"}]},{"type":"error","name":"UpgradesAreLocked","inputs":[]},{"type":"error","name":"ZeroAddress","inputs":[]}],"bytecode":{"object":"0x60a080604052346100e6573060805260017f9b779b17422d0df92223018b32b4d1fa46e071723d6817e2486d003becc55f00555f516020613f6d5f395f51905f525460ff8160401c166100d7576002600160401b03196001600160401b03821601610084575b604051613e8290816100eb823960805181818161224701526123a70152f35b6001600160401b0319166001600160401b039081175f516020613f6d5f395f51905f525581527fc7f505b2f371ae2175ee4913f4499e1f2633a7b5936321eed1cdaeb6115181d290602090a15f80610065565b63f92ee8a960e01b5f5260045ffd5b5f80fdfe60806040526004361015610018575b36613a0757613a07565b5f3560e01c806303edf91414612cc1578063049ac59b14612c585780630abbfc4714612c36578063126c416614612bfa57806312e8e2c314612b8b578063164e68de14612afc57806320d54ecf14612aad57806322dcd13e14612a90578063236afb8314612968578063253647fc1461291a57806335196643146128a4578063375b3c0a146128875780633d092b3d146128405780633f4ba83a146127b95780634137ad2014610c9c57806341fdb48514612782578063434ba330146126665780634768d4ef146125475780634f1ef2861461235857806351858e271461229b57806352d1902d1461223557806354fd4d50146121ee578063587f5ed7146121d15780635b7baf641461209e5780635c975abb146120705780635cd8a76b14611fd65780636268347f14611f9e57806362d26ed714611f4f578063667823fa14611efb578063677bd9ff14611d105780636ce8280014611baa578063744b3fb314611b80578063768b5c6714611af757806378c5195e14611ac35780637d06a8e114611a485780638443b233146113f85780638c9bd1b5146119be5780638ccaa04e146117a55780638da5cb5b1461177e578063aa079eb01461166f578063ac59493714611488578063ad3cb1cc14611441578063ae062acd146113f8578063b463b63414610dd1578063b4ad06a114610d20578063baef810314610cd9578063bb6e5d0c14610c9c578063c03fb87c14610bbe578063c1a287e214610ba2578063c4d66de8146109cf578063c5adf7c9146109b2578063e008990a146107f0578063e04db31314610782578063e3085a7d146105a3578063e993a3ae1461039a578063ea1b28e01461037d578063ed5fc4b11461034e5763f2fde38b0361000e573461034a57602036600319011261034a576102b3612f87565b5f54906001600160a01b038216903382900361033b576001600160a01b031691821561032c5782906bffffffffffffffffffffffff60a01b16175f55815f52600160205260405f20600160ff198254161790557f8be0079c531659141344cd1fd0a4f28419497f9722a3daafe3b4186f6b6457e05f80a3005b63d92e233d60e01b5f5260045ffd5b6330cd747160e01b5f5260045ffd5b5f80fd5b3461034a57602036600319011261034a576004355f526033602052602060ff60405f2054166040519015158152f35b3461034a575f36600319011261034a576020600554604051908152f35b3461034a57602036600319011261034a576004356001600160401b03811161034a576103ca903690600401612fb3565b906103d3613a44565b5f908215610594576032831161058557335f5b8481106104785750508115610469577f81df3ae92fcea75bbfeced2a3782f441324a3328130847df786cf0ad3a64142e82602094335f526034865260405f20610430838254613635565b905561043c8233613ac5565b61044d6040519283923396846137fe565b0390a260015f516020613e0d5f395f51905f5255604051908152f35b6312d37ee560e31b5f5260045ffd5b61048381868561352b565b3593845f526008602052600360ff600a60405f20015460081c166104a681612fe3565b14801590610564575b61055957845f52600960205260405f20835f5260205260405f20906002820180549260ff8460081c1661054b579261010092610515926001809796015494859361ff001916179055885f52603560205260405f2061050e838254613635565b9055613635565b956040519182527ff3f402280ef0a7905e124aa621b65eaeb2725c343e8b36d398ed78c29daf285c60203393a301905b906103e6565b505094505060010190610545565b935060010190610545565b50845f52600a60205260405f20835f5260205260ff60405f205416156104af565b6305beb17160e11b5f5260045ffd5b63521299a960e01b5f5260045ffd5b3461034a576105b1366132ca565b905f906105bd8361383b565b936105c78461383b565b935f5b81811061065557505050506105de8161383b565b916105e88261383b565b935f5b8381106106205761060e8561061c8860405193849360408552604085019061330d565b90838203602085015261330d565b0390f35b8061062d6001928461354f565b51610638828861354f565b52610643818561354f565b5161064e828961354f565b52016105eb565b61066081838661352b565b35805f52600860205260405f20600a81015491600260ff8460081c1661068581612fe3565b148061075a575b61069c575b5050506001016105ca565b805f52600960205260405f2060018060a01b0387165f526020528960405f209360028501549060ff8260081c16156106d7575b505050610691565b60ff166106ec816106e787613563565b613c96565b1591821561073a575b5050610703575b81806106cf565b9288926107209261071a6001979b6107309761354f565b52613ce6565b61072a828a61354f565b5261386d565b94908880896106fc565b60ff9192501661074982612fe3565b61075281612fe3565b148c806106f5565b50805f52600a60205260405f2060018060a01b0387165f5260205260ff60405f20541661068c565b3461034a57602036600319011261034a5761079b612f87565b5f546001600160a01b0316330361033b576001600160a01b03165f818152600160205260408120805460ff191690557f5450c43ed2783d76c5dec6d24a01ed40a3ef73a71b855da9761beb44b79e646a9080a2005b3461034a57604036600319011261034a576004356001600160401b03811161034a57610820903690600401612fb3565b906024356001600160401b03811161034a5761084090369060040161329d565b9290335f52600160205260ff60405f205416158061099e575b61098f5781156105945760328211610585575f5b8281106108c557506108c0907fa5b3769fb65f0869f7f5b2ca1c598de3d6754abc6c89ab553d7a00971d7b9d9f946108b26040519586956040875260408701916136e9565b91848303602086015261381b565b0390a1005b806108dc6108d6600193868861352b565b35613aa3565b6108e781858761352b565b355f526008602052600a60405f2001805460ff8160081c1661090881612fe3565b6002811415908161097a575b50610922575b50500161086d565b61ff00191661030017905561093881858761352b565b357fbe9561483b1664685b575e72966584b8b66b253bd4f2e55e045e00db8fc134af6040516020815280610970602082018b8961381b565b0390a2868061091a565b6003915061098781612fe3565b141589610914565b632dd885fb60e01b5f5260045ffd5b505f546001600160a01b0316331415610859565b3461034a575f36600319011261034a576020600654604051908152f35b3461034a57602036600319011261034a576109e8612f87565b5f516020613e2d5f395f51905f5254906001600160401b0360ff8360401c1615921680159081610b9a575b6001149081610b90575b159081610b87575b50610b78578160016001600160401b03195f516020613e2d5f395f51905f525416175f516020613e2d5f395f51905f5255610b43575b6001600160a01b0316801561032c5760ff5f516020613e2d5f395f51905f525460401c1615610b3457806bffffffffffffffffffffffff60a01b5f5416175f555f52600160205260405f20600160ff1982541617905560ff1960025416600255606460035566038d7ea4c6800060045567016345785d8a00006005556001600655610ae257005b60ff60401b195f516020613e2d5f395f51905f5254165f516020613e2d5f395f51905f52557fc7f505b2f371ae2175ee4913f4499e1f2633a7b5936321eed1cdaeb6115181d2602060405160018152a1005b631afcd79f60e31b5f5260045ffd5b6801000000000000000060ff60401b195f516020613e2d5f395f51905f525416175f516020613e2d5f395f51905f5255610a5b565b63f92ee8a960e01b5f5260045ffd5b90501583610a25565b303b159150610a1d565b839150610a13565b3461034a575f36600319011261034a576020604051610e108152f35b3461034a57604036600319011261034a57610bd7612f9d565b5f6060604051610be681613139565b82815282602082015282604082015201526004355f52600960205260405f209060018060a01b03165f52602052608060405f2060405190610c2682613139565b80546001600160a01b0316825260018101546020830190815260029091015490604083019060ff8316610c5881612fe3565b825260089290921c60ff1615156060840190815260405193516001600160a01b031684529151602084015251610c8d81612fe3565b60408301525115156060820152f35b3461034a57602036600319011261034a576001600160a01b03610cbd612f87565b165f526001602052602060ff60405f2054166040519015158152f35b3461034a57604036600319011261034a576060610cff610cf7612f9d565b600435613893565b604080519180511515835260ff602082015116602084015201516040820152f35b3461034a57602036600319011261034a57600435335f52600160205260ff60405f2054161580610dbd575b61098f57610d5881613aa3565b805f526008602052600a60405f2001805460ff8160081c16610d7981612fe3565b610dae5761ff0019166101001790557feb7ecc3aa4dd407c7207677a2cbf861441d5c5e6c0dc70ad9692a980385c20d65f80a2005b63644322bf60e11b5f5260045ffd5b505f546001600160a01b0316331415610d4b565b3461034a57608036600319011261034a576004356001600160401b03811161034a57610e0190369060040161329d565b6024356001600160401b03811161034a57610e2090369060040161329d565b916044356001600160401b03811161034a57610e4090369060040161329d565b92335f52600160205260ff60405f20541615806113e4575b61098f57610e64613a7c565b4260643511156113d557604083116113c657604085116113c657604084116113c65760065494610e938661386d565b600655604051610ea281613154565b86815260643560208201525f60408201525f60608201525f60808201525f60a08201525f60c08201525f60e082015261010081015f815261012082015f815261014083015f81526101608401905f8252610efe8c8a3691613267565b916101808601928352610f1236888a613267565b936101a08701948552610f26368d8c613267565b6101c08801528c5f52600860205260405f2095875187556020880151600188015560408801516002880155606088015160038801556080880151600488015560a0880151600588015560c0880151600688015560e08801516007880155516008870155516009860155610fa7600a86019251610fa181612fe3565b8361387b565b51610fb181612fe3565b610fba81612fe3565b815461ff00191660089190911b61ff0016179055518051600b8401916001600160401b03821161123a578190610ff08454613101565b601f8111611376575b50602090601f8311600114611313575f92611308575b50508160011b915f199060031b1c19161790555b518051600c8301916001600160401b03821161123a576110438354613101565b601f81116112c3575b50602090601f8311600114611259579180600d94926101c096945f9261124e575b50508160011b915f199060031b1c19161790555b019101518051906001600160401b03821161123a576110a08354613101565b601f81116111f5575b5091602099959391899795938b90601f831160011461115e5792826111409796937f5dec31c57583bbc5ce16d1782e3ab15936c2415cd1448c2fb2d7e71c337e30e19b9c9693611132965f92611153575b50508160011b915f199060031b1c19161790555b61112560405198899860808a5260808a019161381b565b918783038d89015261381b565b91848303604086015261381b565b60643560608301520390a2604051908152f35b015190508f806110fa565b999493929190601f1982169a835f52815f209b5f5b8181106111db5750927f5dec31c57583bbc5ce16d1782e3ab15936c2415cd1448c2fb2d7e71c337e30e19b9c6111409998979593600193836111329997106111c3575b505050811b01905561110e565b01515f1960f88460031b161c191690558f80806111b6565b838301518e556001909d019c8e9c50928f01928f01611173565b835f5260205f20601f840160051c81019160208510611230575b601f0160051c01905b81811061122557506110a9565b5f8155600101611218565b909150819061120f565b634e487b7160e01b5f52604160045260245ffd5b015190508e8061106d565b90601f19831691845f52815f20925f5b8181106112ab57509260019285926101c09896600d989610611293575b505050811b019055611081565b01515f1960f88460031b161c191690558e8080611286565b92936020600181928786015181550195019301611269565b835f5260205f20601f840160051c810191602085106112fe575b601f0160051c01905b8181106112f3575061104c565b5f81556001016112e6565b90915081906112dd565b015190508d8061100f565b5f8581528281209350601f198516905b81811061135e5750908460019594939210611346575b505050811b019055611023565b01515f1960f88460031b161c191690558d8080611339565b92936020600181928786015181550195019301611323565b909150835f5260205f20601f840160051c810191602085106113bc575b90601f859493920160051c01905b8181106113ae5750610ff9565b5f81558493506001016113a1565b9091508190611393565b631623655b60e31b5f5260045ffd5b631223815760e11b5f5260045ffd5b505f546001600160a01b0316331415610e58565b3461034a57604036600319011261034a57611411612f9d565b6004355f52600a60205260405f209060018060a01b03165f52602052602060ff60405f2054166040519015158152f35b3461034a575f36600319011261034a5761061c60405161146260408261318b565b60058152640352e302e360dc1b6020820152604051918291602083526020830190613001565b3461034a57611496366132ca565b90916114a18261383b565b926114ab836134a7565b916114b9604051938461318b565b8383526114c5846134a7565b602084019490601f19013686375f5b818110611533576114f7878787602060405194859460408652604086019061330d565b918483038286015251918281520191905f5b818110611517575050500390f35b825160ff16845285945060209384019390920191600101611509565b80611541600192848761352b565b35805f52600860205260405f20905f61155a848c61354f565b525f611566848a61354f565b52805f52600a60205260405f20848060a01b0387165f5260205260ff60405f205416611595575b5050016114d4565b5f52600960205260405f20838060a01b0386165f5260205260405f20600281015460ff8160081c165f146115db5750505060026115d2828861354f565b525b888061158d565b600a830154600260ff8260081c166115f281612fe3565b14611601575b505050506115d4565b60ff16611611816106e786613563565b1591821561164f575b5050611628575b80806115f8565b61163191613ce6565b61163b828a61354f565b5281611647828861354f565b528880611621565b60ff9192501661165e82612fe3565b61166781612fe3565b148b8061161a565b3461034a57604036600319011261034a576004356024356001600160401b03811161034a576116a290369060040161329d565b90335f52600160205260ff60405f205416158061176a575b61098f576116c783613aa3565b825f526008602052600a60405f20019182549260ff8460081c166116ea81612fe3565b6002811461175b576003906116fe81612fe3565b1461174c576103007fbe9561483b1664685b575e72966584b8b66b253bd4f2e55e045e00db8fc134af9461ff00191617905561174760405192839260208452602084019161381b565b0390a2005b63f647d0b960e01b5f5260045ffd5b63347b471560e11b5f5260045ffd5b505f546001600160a01b03163314156116ba565b3461034a575f36600319011261034a575f546040516001600160a01b039091168152602090f35b3461034a57602036600319011261034a576004356001600160401b03811161034a576117d5903690600401612fb3565b906117de613a44565b5f908215610594576032831161058557335f5b84811061183b5750508115610469577f2042933209cafdbd84693b6b601c468bb084c4df06c3bb15451a38d8bf7014b582602094335f526034865260405f20610430838254613635565b61184681868561352b565b35805f52600860205260405f2094600a86015490600260ff8360081c1661186c81612fe3565b1480159061199d575b61199057825f52600960205260405f20855f5260205260405f2096600288019081549360ff8560081c166119805760ff166118b3816106e784613563565b15159081611960575b506119515761010093600196959387936118d98c6118fb95613ce6565b96879361ff001916179055845f52603560205260405f2061050e838254613635565b9701548083111561194a576119109083613642565b60405192835260208301527f6256309dc4c6375473b26b31fc0e88b0ca9ebca0e558d39fec5aa96863ad40cb60403393a301905b906117f1565b505f611910565b50509550505060010190611944565b905060ff851661196f82612fe3565b61197881612fe3565b14158b6118bc565b5050509550505060010190611944565b9550505060010190611944565b50825f52600a60205260405f20855f5260205260ff60405f20541615611875565b3461034a57604036600319011261034a575f5460043590602435906001600160a01b0316330361033b5781158015611a3e575b611a2f57816040917febe4bfbb418499c23fa5fa0ea9a38ae0c885402f24ee19601c00738f1231150f936004558060055582519182526020820152a1005b63d1d42c6d60e01b5f5260045ffd5b50818111156119f1565b3461034a57604036600319011261034a57611a61612f9d565b6004355f9081526009602090815260408083206001600160a01b03948516845282529182902080546001820154600290920154935194168452908301526080919060ff90808216611ab181612fe3565b604084015260081c1615156060820152f35b3461034a57604036600319011261034a576040611ae9611ae1612f9d565b60043561370d565b825191825215156020820152f35b3461034a57602036600319011261034a57600435335f52600160205260ff60405f2054161580611b6c575b61098f57611b2f81613aa3565b805f52603360205260405f20600160ff198254161790557f9f6b838e8160012b261280722f7d000f9a616b49bae77628ab03db3142190c685f80a2005b505f546001600160a01b0316331415611b22565b3461034a57602036600319011261034a576004355f526035602052602060405f2054604051908152f35b3461034a57604036600319011261034a576004356001600160401b03811161034a57611bda903690600401612fb3565b6024356001600160401b03811161034a57611bf9903690600401612fb3565b9092335f52600160205260ff60405f2054161580611cfc575b61098f57818303611ced575f5b838110611caa5750611c3f602091604051946040865260408601916136e9565b838103828501528281520192905f905b808210611c7e577ffe29ef8c382ba6d8aaf9b1879ccd92e06b83538a1540115f81a9ce50555b6b5684860385a1005b909193843590600482101561034a576020809183611c9d600195612fe3565b8152019501920190611c4f565b611cb86108d682868561352b565b611cc381858461352b565b3590611cd081858861352b565b3591600483101561034a57600192611ce791613b1b565b01611c1f565b63512509d360e11b5f5260045ffd5b505f546001600160a01b0316331415611c12565b3461034a57602036600319011261034a57600435611d2c613a44565b611d3581613aa3565b805f52600860205260405f2090600a820154600260ff8260081c16611d5981612fe3565b03611eec575f828152600a6020908152604080832033845290915290205460ff1615611edd575f82815260096020908152604080832033845290915290206002015490600882901c60ff16611ece5760ff16611db8816106e786613563565b15159182611ead575b5050611e9e57805f52600960205260405f2060018060a01b0333165f526020526001611df160405f208094613ce6565b926002810161010061ff0019825416179055335f52603460205260405f20611e1a858254613635565b9055825f52603560205260405f20611e33858254613635565b9055611e3f8433613ac5565b015480831115611e9757611e539083613642565b60405192835260208301527f6256309dc4c6375473b26b31fc0e88b0ca9ebca0e558d39fec5aa96863ad40cb60403393a360015f516020613e0d5f395f51905f5255005b505f611e53565b6358cd4fc160e11b5f5260045ffd5b60ff91925016611ebc82612fe3565b611ec581612fe3565b14158380611dc1565b630c8d9eab60e31b5f5260045ffd5b63c68bdd8160e01b5f5260045ffd5b637fdbb42f60e11b5f5260045ffd5b3461034a575f36600319011261034a575f546001600160a01b0316330361033b57600160ff1960025416176002557fe94c5ca52ec0c976a07171b90c55fc72d73752905002b76275cbcd533c0754b65f80a1005b3461034a57602036600319011261034a576004355f526008602052608060405f206002810154906003810154906005600482015491015491604051938452602084015260408301526060820152f35b3461034a57602036600319011261034a576001600160a01b03611fbf612f87565b165f526034602052602060405f2054604051908152f35b3461034a575f36600319011261034a575f516020613e2d5f395f51905f525460ff8160401c1690811561205b575b50610b78575f516020613e2d5f395f51905f52805468ffffffffffffffffff191660029081179091556040519081527fc7f505b2f371ae2175ee4913f4499e1f2633a7b5936321eed1cdaeb6115181d290602090a1005b600291506001600160401b0316101581612004565b3461034a575f36600319011261034a57602060ff5f516020613ded5f395f51905f5254166040519015158152f35b3461034a57602036600319011261034a576004356120ba613a44565b6120c381613aa3565b805f526008602052600360ff600a60405f20015460081c166120e481612fe3565b036121c2575f818152600a6020908152604080832033845290915290205460ff1615611edd575f81815260096020908152604080832033845290915290206002810180549291600884901c60ff16611ece5760016101009101549361ff001916179055335f52603460205260405f2061215e838254613635565b9055805f52603560205260405f20612177838254613635565b90556121838233613ac5565b6040519182527ff3f402280ef0a7905e124aa621b65eaeb2725c343e8b36d398ed78c29daf285c60203393a360015f516020613e0d5f395f51905f5255005b630b56b7c560e01b5f5260045ffd5b3461034a575f36600319011261034a576020600754604051908152f35b3461034a575f36600319011261034a5761061c60405161220f60408261318b565b60058152640322e302e360dc1b6020820152604051918291602083526020830190613001565b3461034a575f36600319011261034a577f00000000000000000000000000000000000000000000000000000000000000006001600160a01b0316300361228c5760206040515f516020613dcd5f395f51905f528152f35b63703e46dd60e11b5f5260045ffd5b3461034a575f36600319011261034a57335f52600160205260ff60405f2054161580612344575b61098f576122ce613a7c565b600160ff195f516020613ded5f395f51905f525416175f516020613ded5f395f51905f52557f62e78cea01bee320cd4e420270b5ea74000d11b0c9f74754ebdbfc544b05a2586020604051338152a1337f4cc6bc23eee52e8b6b143776546ab08894c14250220cad11136890794a24bcbe5f80a2005b505f546001600160a01b03163314156122c2565b604036600319011261034a5761236c612f87565b6024356001600160401b03811161034a573660238201121561034a5761239c903690602481600401359101613267565b906001600160a01b037f000000000000000000000000000000000000000000000000000000000000000016308114908115612525575b5061228c575f546001600160a01b0316330361033b5760ff60025416612516576040516352d1902d60e01b81526001600160a01b0382169290602081600481875afa5f91816124e2575b506124345783634c9c8ce360e01b5f5260045260245ffd5b805f516020613dcd5f395f51905f528592036124d05750823b156124be575f516020613dcd5f395f51905f5280546001600160a01b031916821790557fbc7cd75a20ee27fd9adebab32041f755214dbc6bffa90cc0225b39da2e5c2d3b5f80a28051156124a6576124a491613d40565b005b5050346124af57005b63b398979f60e01b5f5260045ffd5b634c9c8ce360e01b5f5260045260245ffd5b632a87526960e21b5f5260045260245ffd5b9091506020813d60201161250e575b816124fe6020938361318b565b8101031261034a5751908561241c565b3d91506124f1565b638ddaa4bd60e01b5f5260045ffd5b5f516020613dcd5f395f51905f52546001600160a01b031614159050836123d2565b3461034a57602036600319011261034a576004355f52600860205260405f2080549060018101549060028101549060038101546004820154600583015460068401546007850154600886015490600987015492600a8801549460ff86169560081c60ff1696600b8a016125b9906131ac565b986125c6600c8c016131ac565b9a600d016125d3906131ac565b9b6040519e8f9e8f91825260208201526040015260608d015260808c015260a08b015260c08a015260e089015261010088015261012087015261261581612fe3565b61014086015261262481612fe3565b61016085015261018084016101e090526101e0840161264291613001565b8381036101a085015261265491613001565b8281036101c084015261061c91613001565b3461034a57602036600319011261034a5760a0600435805f52600860205260405f206002810154915f52603560205260405f205490600a81015460ff8160081c166126b081612fe3565b60028103612734575060ff6126c991166106e783613563565b83811591821561272a575b50501561271657505f90825b81811115612710576126f28282613642565b925b6040519485526020850152604084015260608301526080820152f35b5f6126f2565b60090154906127258284613642565b6126e0565b14905083866126d4565b90506003915061274381612fe3565b03612769575f9082818111156127635761275d8285613642565b926126f4565b5f61275d565b6127106127786003548461364f565b04905f5f926126f4565b3461034a57606036600319011261034a57602435600481101561034a576127b160209160443590600435613680565b604051908152f35b3461034a575f36600319011261034a575f546001600160a01b0316330361033b575f516020613ded5f395f51905f525460ff8116156128315760ff19165f516020613ded5f395f51905f52557f5db9ee0a495bf2e6ff9c91a7834c1ba4fdd244a5e8aa4e537bd38aeae4b073aa6020604051338152a1005b638dfc202b60e01b5f5260045ffd5b3461034a57602036600319011261034a576128596134be565b506004355f52600860205261061c61287360405f20613563565b604051918291602083526020830190613025565b3461034a575f36600319011261034a576020600454604051908152f35b3461034a57602036600319011261034a576128bd612f87565b5f546001600160a01b0316330361033b576001600160a01b0316801561032c57805f52600160205260405f20600160ff198254161790557fe0c52d7f0c078c5aa9cb59be65faf07cdc535b2e3b34cb6c1ae7b5d7af07c1f95f80a2005b3461034a57602036600319011261034a576004355f52600860205260405f20600681015461061c60086007840154930154604051938493846040919493926060820195825260208201520152565b3461034a57602036600319011261034a576004356001600160401b03811161034a57612998903690600401612fb3565b906129a2826134a7565b916129b0604051938461318b565b808352601f196129bf826134a7565b015f5b818110612a795750505f5b818110612a3b57836040518091602082016020835281518091526040830190602060408260051b8601019301915f905b828210612a0c57505050500390f35b91936001919395506020612a2b8192603f198a82030186528851613025565b96019201920185949391926129fd565b80612a49600192848661352b565b355f526008602052612a5d60405f20613563565b612a67828761354f565b52612a72818661354f565b50016129cd565b602090612a846134be565b828288010152016129c2565b3461034a575f36600319011261034a576020600354604051908152f35b3461034a57612abb36612f68565b335f52600160205260ff60405f2054161580612ae8575b61098f5781612ae36124a493613aa3565b613b1b565b505f546001600160a01b0316331415612ad2565b3461034a57602036600319011261034a57612b15612f87565b5f546001600160a01b0316330361033b576001600160a01b03811690811561032c57600754908115612b7c5781612b737fc0819c13be868895eb93e40eaceb96de976442fa1d404e5c55f14bb65a8c489a936020935f600755613ac5565b604051908152a2005b630d00db4d60e31b5f5260045ffd5b3461034a57602036600319011261034a575f54600435906001600160a01b0316330361033b576101f48111612beb576020817f45610d581145924dd7090a5017e5f2b1d6f42213bb2e95707ff86846bbfcb1ca92600355604051908152a1005b638bff87cf60e01b5f5260045ffd5b3461034a57602036600319011261034a5761061c612c19600435613340565b604080519384526020840192909252908201529081906060820190565b3461034a575f36600319011261034a57602060ff600254166040519015158152f35b3461034a57602036600319011261034a575f54600435906001600160a01b0316330361033b57612c8781613aa3565b805f52603360205260405f2060ff1981541690557fbd2800ce670bc629d6709a5facc3b0e4748e1b212b7e420b1ed292778a4c50465f80a2005b612cca36612f68565b90612cd3613a44565b612cdb613a7c565b612ce481613aa3565b805f52603360205260ff60405f205416612f5957805f52600860205260405f2060ff600a82015460081c16612d1881612fe3565b610dae5760010154421015612f4a576004543410612f3b576005543411612f2c575f818152600a6020908152604080832033845290915290205460ff16612f1d57612d6282612fe3565b8115612f0e57805f52600860205260405f206002810190612d84348354613635565b8255612d8f84612fe3565b60018403612ec55780600360069201612da9348254613635565b905501612db6815461386d565b90555b604051612dc581613139565b33815260208101348152612e3760026040840193612de288612fe3565b8785525f60608201818152888252600960209081526040808420338552909152909120915182546001600160a01b0319166001600160a01b0391909116178255935160018201559351930192610fa181612fe3565b51815461ff00191690151560081b61ff00161790555f828152600a6020908152604080832033845290915290819020805460ff191660011790559054905192612e7f81612fe3565b835234602084015260408301527fbfcd8f4e47cc529f86cdc7eab8fb80e015a298e021fcaee72df1f76dd57cf48760603393a360015f516020613e0d5f395f51905f5255005b612ece84612fe3565b60028403612efc5780600460079201612ee8348254613635565b905501612ef5815461386d565b9055612db9565b80600560089201612ee8348254613635565b63c74a206d60e01b5f5260045ffd5b6354103a1760e11b5f5260045ffd5b631793980960e01b5f5260045ffd5b63389f7e1160e01b5f5260045ffd5b6334fd43b360e11b5f5260045ffd5b63190ba4bf60e31b5f5260045ffd5b604090600319011261034a5760043590602435600481101561034a5790565b600435906001600160a01b038216820361034a57565b602435906001600160a01b038216820361034a57565b9181601f8401121561034a578235916001600160401b03831161034a576020808501948460051b01011161034a57565b60041115612fed57565b634e487b7160e01b5f52602160045260245ffd5b805180835260209291819084018484015e5f828201840152601f01601f1916010190565b6130fe91815181526020820151602082015260408201516040820152606082015160608201526080820151608082015260a082015160a082015260c082015160c082015260e082015160e082015261010082015161010082015261012082015161012082015261014082015161309a81612fe3565b6101408201526101608201516130af81612fe3565b6101608201526101c06130ec6130d86101808501516101e06101808601526101e0850190613001565b6101a08501518482036101a0860152613001565b920151906101c0818403910152613001565b90565b90600182811c9216801561312f575b602083101461311b57565b634e487b7160e01b5f52602260045260245ffd5b91607f1691613110565b608081019081106001600160401b0382111761123a57604052565b6101e081019081106001600160401b0382111761123a57604052565b606081019081106001600160401b0382111761123a57604052565b90601f801991011681019081106001600160401b0382111761123a57604052565b9060405191825f8254926131bf84613101565b808452936001811690811561322a57506001146131e6575b506131e49250038361318b565b565b90505f9291925260205f20905f915b81831061320e5750509060206131e4928201015f6131d7565b60209193508060019154838589010152019101909184926131f5565b9050602092506131e494915060ff191682840152151560051b8201015f6131d7565b6001600160401b03811161123a57601f01601f191660200190565b9291926132738261324c565b91613281604051938461318b565b82948184528183011161034a578281602093845f960137010152565b9181601f8401121561034a578235916001600160401b03831161034a576020838186019501011161034a57565b90604060031983011261034a576004356001600160a01b038116810361034a5791602435906001600160401b03821161034a5761330991600401612fb3565b9091565b90602080835192838152019201905f5b81811061332a5750505090565b825184526020938401939092019160010161331d565b5f52600860205260405f2090600282015490811561349d576040519260a084018481106001600160401b0382111761123a576040525f8452602084015f815260408501915f83526133c360608701965f885260808101965f8852600260ff600a86015460081c166133b081612fe3565b0361348657600984015480925b52613642565b8083526003820154801561347e576127108202918083046127101490151715613456576133ef91613662565b8352600481015490811561347457825161271081029080820461271014901517156134565760059261342091613662565b8752015490811561346a57519061271082029180830461271014901517156134565761344b91613662565b80935b525192519190565b634e487b7160e01b5f52601160045260245ffd5b50505f809361344e565b600591505f613420565b50505f6133ef565b6127106134956003548361364f565b0480926133bd565b5f92508291508190565b6001600160401b03811161123a5760051b60200190565b604051906134cb82613154565b60606101c0835f81525f60208201525f60408201525f838201525f60808201525f60a08201525f60c08201525f60e08201525f6101008201525f6101208201525f6101408201525f61016082015282610180820152826101a08201520152565b919081101561353b5760051b0190565b634e487b7160e01b5f52603260045260245ffd5b805182101561353b5760209160051b010190565b9060405161357081613154565b6101c0613630600d83958054855260018101546020860152600281015460408601526003810154606086015260048101546080860152600581015460a0860152600681015460c0860152600781015460e08601526008810154610100860152600981015461012086015260ff600a8201548181166135ed81612fe3565b61014088015260081c1661360081612fe3565b610160860152613612600b82016131ac565b610180860152613624600c82016131ac565b6101a0860152016131ac565b910152565b9190820180921161345657565b9190820391821161345657565b8181029291811591840414171561345657565b811561366c570490565b634e487b7160e01b5f52601260045260245ffd5b5f5260086020526136af826136aa60405f20936106e76136a4846002880154613635565b95613563565b613635565b9081156136e2576130fe926136d76136dd926127106136d06003548361364f565b0490613642565b9061364f565b613662565b5050505f90565b81835290916001600160fb1b03831161034a5760209260051b809284830137010190565b90815f52600860205260405f2091805f52600a60205260405f2060018060a01b0383165f5260205260ff60405f205416156137f5575f52600960205260405f209060018060a01b03165f5260205260405f20600281015460ff8160081c166137eb57600a830154600260ff8260081c1661378681612fe3565b036137e15760ff1661379b816106e786613563565b151591826137c0575b50506137b8576137b391613ce6565b905f90565b50505f905f90565b60ff919250166137cf82612fe3565b6137d881612fe3565b14155f806137a4565b505050505f905f90565b5050505f90600190565b5050505f905f90565b939291602091613816916040875260408701916136e9565b930152565b908060209392818452848401375f828201840152601f01601f1916010190565b90613845826134a7565b613852604051918261318b565b8281528092613863601f19916134a7565b0190602036910137565b5f1981146134565760010190565b9061388581612fe3565b60ff80198354169116179055565b906040516138a081613170565b5f81525f60208201525f604082015250815f52600860205260405f2091805f52600a60205260405f2060018060a01b0383165f5260205260ff60405f205416156139f8575f52600960205260405f209060018060a01b03165f5260205260405f20600281015460ff8160081c166139f857600a83015460ff8160081c1661392681612fe3565b600281036139b8575060ff1661393f816106e786613563565b15918215613998575b505061396f5750505b60405161395d81613170565b5f81525f60208201525f604082015290565b61397891613ce6565b6040519061398582613170565b6001825260016020830152604082015290565b60ff919250166139a782612fe3565b6139b081612fe3565b145f80613948565b91505060039192506139c981612fe3565b146139d45750613951565b60010154604051906139e582613170565b6001825260026020830152604082015290565b50505060405161395d81613170565b60405162461bcd60e51b81526020600482015260156024820152742ab9b290383630b1b2a132ba10333ab731ba34b7b760591b6044820152606490fd5b60025f516020613e0d5f395f51905f525414613a6d5760025f516020613e0d5f395f51905f5255565b633ee5aeb560e01b5f5260045ffd5b60ff5f516020613ded5f395f51905f525416613a9457565b63d93c066560e01b5f5260045ffd5b5f52600860205260405f205415613ab657565b631632113760e31b5f5260045ffd5b5f918291829182916001600160a01b03165af13d15613b16573d613ae88161324c565b90613af6604051928361318b565b81525f60203d92013e5b15613b0757565b6312171d8360e31b5f5260045ffd5b613b00565b90815f52600860205260405f2090600a82019081549260ff8460081c1692613b4284612fe3565b6002841461175b57613b5384612fe3565b6003841461174c57613b6483612fe3565b8215612f0e576001820154610e108101809111613456574210613c87577ffe06457883c237bde432927009a0bcdd42b498d00466d2677282a4c05b5a6e1f94608094613baf81612fe3565b15613c51575b50613bc0838261387b565b805461ff001916610200179055613bda826106e783613563565b5f9181151580613c44575b613c0f575b6002015460405193613bfb81612fe3565b8452602084015260408301526060820152a2565b91506002612710613c26828501546003549061364f565b0492613c3a84806009840155600754613635565b6007559050613bea565b5060028101548210613be5565b61ff001916610100178155857feb7ecc3aa4dd407c7207677a2cbf861441d5c5e6c0dc70ad9692a980385c20d65f80a25f613bb5565b63945614c360e01b5f5260045ffd5b90613ca081612fe3565b60018114613cde57613cb181612fe3565b60028114613cd657600390613cc581612fe3565b14613ccf57505f90565b60a0015190565b506080015190565b506060015190565b613cfa60ff600a830154166106e783613563565b9081613d095750506001015490565b600281015490828203613d20575050506001015490565b926001613d386136dd9360096130fe97015490613642565b91015461364f565b905f8091602081519101845af48080613db9575b15613d745750506040513d81523d5f602083013e60203d82010160405290565b15613d9957639996b31560e01b5f9081526001600160a01b0391909116600452602490fd5b3d15613daa576040513d5f823e3d90fd5b63d6bda27560e01b5f5260045ffd5b503d151580613d545750813b1515613d5456fe360894a13ba1a3210667c828492db98dca3e2076cc3735a920a3ca505d382bbccd5ed15c6e187e77e9aee88184c21f4f2182ab5827cb3b7e07fbedcd63f033009b779b17422d0df92223018b32b4d1fa46e071723d6817e2486d003becc55f00f0c57e16840df040f15088dc2f81fe391c3923bec73e23a9662efc9c229c6a00a2646970667358221220cfe317385c7345807cfa0db176ea95f62ce612a9930bc3a6e18b9a3eebdfd10b64736f6c634300081d0033f0c57e16840df040f15088dc2f81fe391c3923bec73e23a9662efc9c229c6a00","linkReferences":{}},"methodIdentifiers":{"GRACE_PERIOD()":"c1a287e2","UPGRADE_INTERFACE_VERSION()":"ad3cb1cc","accumulatedFees()":"587f5ed7","addMatchManager(address)":"35196643","batchCancelMatches(uint256[],string)":"e008990a","batchClaimRefunds(uint256[])":"e993a3ae","batchClaimWinnings(uint256[])":"8ccaa04e","batchResolveMatches(uint256[],uint8[])":"6ce82800","calculatePotentialWinnings(uint256,uint8,uint256)":"41fdb485","cancelMatch(uint256,string)":"aa079eb0","claimRefund(uint256)":"5b7baf64","claimWinnings(uint256)":"677bd9ff","closeBetting(uint256)":"b4ad06a1","createMatch(string,string,string,uint256)":"b463b634","emergencyPause()":"51858e27","getBatchClaimableAmounts(address,uint256[])":"ac594937","getBetCounts(uint256)":"253647fc","getClaimStatus(uint256,address)":"baef8103","getClaimableAmount(uint256,address)":"78c5195e","getMatch(uint256)":"3d092b3d","getMatchFinancials(uint256)":"434ba330","getMatches(uint256[])":"236afb83","getOdds(uint256)":"126c4166","getPools(uint256)":"62d26ed7","getUnclaimedWinnings(address,uint256[])":"e3085a7d","getUserBet(uint256,address)":"c03fb87c","hasBet(uint256,address)":"ae062acd","hasUserBet(uint256,address)":"8443b233","initialize(address)":"c4d66de8","initializeV2()":"5cd8a76b","isMatchManager(address)":"4137ad20","lockUpgrades()":"667823fa","matchManagers(address)":"bb6e5d0c","matchPaused(uint256)":"ed5fc4b1","matchTotalClaimed(uint256)":"744b3fb3","matches(uint256)":"4768d4ef","maxStake()":"ea1b28e0","minStake()":"375b3c0a","nextMatchId()":"c5adf7c9","owner()":"8da5cb5b","pauseMatch(uint256)":"768b5c67","paused()":"5c975abb","placeBet(uint256,uint8)":"03edf914","platformFeeBps()":"22dcd13e","proxiableUUID()":"52d1902d","removeMatchManager(address)":"e04db313","resolveMatch(uint256,uint8)":"20d54ecf","setPlatformFee(uint256)":"12e8e2c3","setStakeLimits(uint256,uint256)":"8c9bd1b5","transferOwnership(address)":"f2fde38b","unpause()":"3f4ba83a","unpauseMatch(uint256)":"049ac59b","upgradeToAndCall(address,bytes)":"4f1ef286","upgradesLocked()":"0abbfc47","userBets(uint256,address)":"7d06a8e1","userTotalClaimed(address)":"6268347f","version()":"54fd4d50","withdrawFees(address)":"164e68de"},"id":34}